{
  "_format": "hh-sol-artifact-1",
  "contractName": "MotivationSource",
  "sourceName": "contracts/MotivationSource.sol",
  "abi": [
    {
      "inputs": [],
      "stateMutability": "payable",
      "type": "constructor"
    },
    {
      "anonymous": false,
      "inputs": [
        {
          "indexed": true,
          "internalType": "address",
          "name": "from",
          "type": "address"
        },
        {
          "indexed": false,
          "internalType": "uint256",
          "name": "timestamp",
          "type": "uint256"
        },
        {
          "indexed": false,
          "internalType": "string",
          "name": "message",
          "type": "string"
        }
      ],
      "name": "NewChallenge",
      "type": "event"
    },
    {
      "inputs": [],
      "name": "getAllChallenges",
      "outputs": [
        {
          "components": [
            {
              "internalType": "address",
              "name": "challenger",
              "type": "address"
            },
            {
              "internalType": "string",
              "name": "message",
              "type": "string"
            },
            {
              "internalType": "uint256",
              "name": "timestamp",
              "type": "uint256"
            }
          ],
          "internalType": "struct MotivationSource.Challenge[]",
          "name": "",
          "type": "tuple[]"
        }
      ],
      "stateMutability": "view",
      "type": "function"
    },
    {
      "inputs": [],
      "name": "getTotalChallengesShared",
      "outputs": [
        {
          "internalType": "uint256",
          "name": "",
          "type": "uint256"
        }
      ],
      "stateMutability": "view",
      "type": "function"
    },
    {
      "inputs": [
        {
          "internalType": "address",
          "name": "",
          "type": "address"
        }
      ],
      "name": "lastShare",
      "outputs": [
        {
          "internalType": "uint256",
          "name": "",
          "type": "uint256"
        }
      ],
      "stateMutability": "view",
      "type": "function"
    },
    {
      "inputs": [
        {
          "internalType": "string",
          "name": "_message",
          "type": "string"
        }
      ],
      "name": "shareChallenge",
      "outputs": [],
      "stateMutability": "nonpayable",
      "type": "function"
    }
  ],
  "bytecode": "0x6080604052606444426200001491906200002c565b62000020919062000093565b60018190555062000129565b6000620000398262000089565b9150620000468362000089565b9250827fffffffffffffffffffffffffffffffffffffffffffffffffffffffffffffffff038211156200007e576200007d620000cb565b5b828201905092915050565b6000819050919050565b6000620000a08262000089565b9150620000ad8362000089565b925082620000c057620000bf620000fa565b5b828206905092915050565b7f4e487b7100000000000000000000000000000000000000000000000000000000600052601160045260246000fd5b7f4e487b7100000000000000000000000000000000000000000000000000000000600052601260045260246000fd5b610e0a80620001396000396000f3fe608060405234801561001057600080fd5b506004361061004c5760003560e01c8063829ef1ac1461005157806396aad3c81461006f5780639eb69c991461008b578063e661406b146100bb575b600080fd5b6100596100d9565b604051610066919061092a565b60405180910390f35b610089600480360381019061008491906106d0565b61022a565b005b6100a560048036038101906100a091906106a7565b610566565b6040516100b291906109ac565b60405180910390f35b6100c361057e565b6040516100d091906109ac565b60405180910390f35b60606002805480602002602001604051908101604052809291908181526020016000905b8282101561022157838290600052602060002090600302016040518060600160405290816000820160009054906101000a900473ffffffffffffffffffffffffffffffffffffffff1673ffffffffffffffffffffffffffffffffffffffff1673ffffffffffffffffffffffffffffffffffffffff16815260200160018201805461018690610b92565b80601f01602080910402602001604051908101604052809291908181526020018280546101b290610b92565b80156101ff5780601f106101d4576101008083540402835291602001916101ff565b820191906000526020600020905b8154815290600101906020018083116101e257829003601f168201915b50505050508152602001600282015481525050815260200190600101906100fd565b50505050905090565b42610384600360003373ffffffffffffffffffffffffffffffffffffffff1673ffffffffffffffffffffffffffffffffffffffff168152602001908152602001600020546102789190610abe565b106102b8576040517f08c379a00000000000000000000000000000000000000000000000000000000081526004016102af9061098c565b60405180910390fd5b42600360003373ffffffffffffffffffffffffffffffffffffffff1673ffffffffffffffffffffffffffffffffffffffff16815260200190815260200160002081905550600160008082825461030e9190610abe565b92505081905550600260405180606001604052803373ffffffffffffffffffffffffffffffffffffffff16815260200183815260200142815250908060018154018082558091505060019003906000526020600020906003020160009091909190915060008201518160000160006101000a81548173ffffffffffffffffffffffffffffffffffffffff021916908373ffffffffffffffffffffffffffffffffffffffff16021790555060208201518160010190805190602001906103d4929190610587565b50604082015181600201555050606460015442446103f29190610abe565b6103fc9190610abe565b6104069190610bf5565b600181905550601460015411610513576000655af3107a4000905080471015610464576040517f08c379a000000000000000000000000000000000000000000000000000000000815260040161045b9061094c565b60405180910390fd5b60003373ffffffffffffffffffffffffffffffffffffffff168260405161048a90610915565b60006040518083038185875af1925050503d80600081146104c7576040519150601f19603f3d011682016040523d82523d6000602084013e6104cc565b606091505b5050905080610510576040517f08c379a00000000000000000000000000000000000000000000000000000000081526004016105079061096c565b60405180910390fd5b50505b3373ffffffffffffffffffffffffffffffffffffffff167f224c8aed30539db467a40323e829e437d7be517523ccf7b332c5807d908f5eae428360405161055b9291906109c7565b60405180910390a250565b60036020528060005260406000206000915090505481565b60008054905090565b82805461059390610b92565b90600052602060002090601f0160209004810192826105b557600085556105fc565b82601f106105ce57805160ff19168380011785556105fc565b828001600101855582156105fc579182015b828111156105fb5782518255916020019190600101906105e0565b5b509050610609919061060d565b5090565b5b8082111561062657600081600090555060010161060e565b5090565b600061063d61063884610a1c565b6109f7565b90508281526020810184848401111561065557600080fd5b610660848285610b50565b509392505050565b60008135905061067781610dbd565b92915050565b600082601f83011261068e57600080fd5b813561069e84826020860161062a565b91505092915050565b6000602082840312156106b957600080fd5b60006106c784828501610668565b91505092915050565b6000602082840312156106e257600080fd5b600082013567ffffffffffffffff8111156106fc57600080fd5b6107088482850161067d565b91505092915050565b600061071d83836108a7565b905092915050565b61072e81610b14565b82525050565b600061073f82610a5d565b6107498185610a80565b93508360208202850161075b85610a4d565b8060005b8581101561079757848403895281516107788582610711565b945061078383610a73565b925060208a0199505060018101905061075f565b50829750879550505050505092915050565b60006107b482610a68565b6107be8185610a9c565b93506107ce818560208601610b5f565b6107d781610ce2565b840191505092915050565b60006107ed82610a68565b6107f78185610aad565b9350610807818560208601610b5f565b61081081610ce2565b840191505092915050565b6000610828602483610aad565b915061083382610cf3565b604082019050919050565b600061084b602783610aad565b915061085682610d42565b604082019050919050565b600061086e600083610a91565b915061087982610d91565b600082019050919050565b6000610891600f83610aad565b915061089c82610d94565b602082019050919050565b60006060830160008301516108bf6000860182610725565b50602083015184820360208601526108d782826107a9565b91505060408301516108ec60408601826108f7565b508091505092915050565b61090081610b46565b82525050565b61090f81610b46565b82525050565b600061092082610861565b9150819050919050565b600060208201905081810360008301526109448184610734565b905092915050565b600060208201905081810360008301526109658161081b565b9050919050565b600060208201905081810360008301526109858161083e565b9050919050565b600060208201905081810360008301526109a581610884565b9050919050565b60006020820190506109c16000830184610906565b92915050565b60006040820190506109dc6000830185610906565b81810360208301526109ee81846107e2565b90509392505050565b6000610a01610a12565b9050610a0d8282610bc4565b919050565b6000604051905090565b600067ffffffffffffffff821115610a3757610a36610cb3565b5b610a4082610ce2565b9050602081019050919050565b6000819050602082019050919050565b600081519050919050565b600081519050919050565b6000602082019050919050565b600082825260208201905092915050565b600081905092915050565b600082825260208201905092915050565b600082825260208201905092915050565b6000610ac982610b46565b9150610ad483610b46565b9250827fffffffffffffffffffffffffffffffffffffffffffffffffffffffffffffffff03821115610b0957610b08610c26565b5b828201905092915050565b6000610b1f82610b26565b9050919050565b600073ffffffffffffffffffffffffffffffffffffffff82169050919050565b6000819050919050565b82818337600083830152505050565b60005b83811015610b7d578082015181840152602081019050610b62565b83811115610b8c576000848401525b50505050565b60006002820490506001821680610baa57607f821691505b60208210811415610bbe57610bbd610c84565b5b50919050565b610bcd82610ce2565b810181811067ffffffffffffffff82111715610bec57610beb610cb3565b5b80604052505050565b6000610c0082610b46565b9150610c0b83610b46565b925082610c1b57610c1a610c55565b5b828206905092915050565b7f4e487b7100000000000000000000000000000000000000000000000000000000600052601160045260246000fd5b7f4e487b7100000000000000000000000000000000000000000000000000000000600052601260045260246000fd5b7f4e487b7100000000000000000000000000000000000000000000000000000000600052602260045260246000fd5b7f4e487b7100000000000000000000000000000000000000000000000000000000600052604160045260246000fd5b6000601f19601f8301169050919050565b7f436f6e747261637420646f6573206e6f74206861766520656e6f75676820667560008201527f6e64732e00000000000000000000000000000000000000000000000000000000602082015250565b7f4661696c656420746f207769746864726177206d6f6e65792066726f6d20636f60008201527f6e74726163742e00000000000000000000000000000000000000000000000000602082015250565b50565b7f57616974203135206d696e757465730000000000000000000000000000000000600082015250565b610dc681610b14565b8114610dd157600080fd5b5056fea26469706673582212204171462091f3689a791c50e8ad6649d3f05b15472989ef52dea1eff333b17fd064736f6c63430008040033",
  "linkReferences": {},
  "deployedLinkReferences": {}
}